{
  "contractName": "TwitterContract",
  "abi": [
    {
      "anonymous": false,
      "inputs": [
        {
          "indexed": false,
          "internalType": "address",
          "name": "recipient",
          "type": "address"
        },
        {
          "indexed": false,
          "internalType": "uint256",
          "name": "tweetId",
          "type": "uint256"
        }
      ],
      "name": "AddTweet",
      "type": "event"
    },
    {
      "anonymous": false,
      "inputs": [
        {
          "indexed": false,
          "internalType": "uint256",
          "name": "tweetId",
          "type": "uint256"
        },
        {
          "indexed": false,
          "internalType": "bool",
          "name": "isDeleted",
          "type": "bool"
        }
      ],
      "name": "DeleteTweet",
      "type": "event"
    },
    {
      "inputs": [
        {
          "internalType": "string",
          "name": "tweetText",
          "type": "string"
        },
        {
          "internalType": "string",
          "name": "url",
          "type": "string"
        },
        {
          "internalType": "bool",
          "name": "isVideo",
          "type": "bool"
        },
        {
          "internalType": "string",
          "name": "video",
          "type": "string"
        },
        {
          "internalType": "bool",
          "name": "isDeleted",
          "type": "bool"
        }
      ],
      "name": "addTweet",
      "outputs": [],
      "stateMutability": "nonpayable",
      "type": "function"
    },
    {
      "inputs": [],
      "name": "getAllTweets",
      "outputs": [
        {
          "components": [
            {
              "internalType": "uint256",
              "name": "id",
              "type": "uint256"
            },
            {
              "internalType": "string",
              "name": "img",
              "type": "string"
            },
            {
              "internalType": "bool",
              "name": "isVideo",
              "type": "bool"
            },
            {
              "internalType": "string",
              "name": "video",
              "type": "string"
            },
            {
              "internalType": "address",
              "name": "userName",
              "type": "address"
            },
            {
              "internalType": "string",
              "name": "tweetText",
              "type": "string"
            },
            {
              "internalType": "bool",
              "name": "isDeleted",
              "type": "bool"
            }
          ],
          "internalType": "struct TwitterContract.Tweet[]",
          "name": "",
          "type": "tuple[]"
        }
      ],
      "stateMutability": "view",
      "type": "function",
      "constant": true
    },
    {
      "inputs": [],
      "name": "getMyTweets",
      "outputs": [
        {
          "components": [
            {
              "internalType": "uint256",
              "name": "id",
              "type": "uint256"
            },
            {
              "internalType": "string",
              "name": "img",
              "type": "string"
            },
            {
              "internalType": "bool",
              "name": "isVideo",
              "type": "bool"
            },
            {
              "internalType": "string",
              "name": "video",
              "type": "string"
            },
            {
              "internalType": "address",
              "name": "userName",
              "type": "address"
            },
            {
              "internalType": "string",
              "name": "tweetText",
              "type": "string"
            },
            {
              "internalType": "bool",
              "name": "isDeleted",
              "type": "bool"
            }
          ],
          "internalType": "struct TwitterContract.Tweet[]",
          "name": "",
          "type": "tuple[]"
        }
      ],
      "stateMutability": "view",
      "type": "function",
      "constant": true
    },
    {
      "inputs": [
        {
          "internalType": "uint256",
          "name": "tweetId",
          "type": "uint256"
        },
        {
          "internalType": "bool",
          "name": "isDeleted",
          "type": "bool"
        }
      ],
      "name": "deleteTweet",
      "outputs": [],
      "stateMutability": "nonpayable",
      "type": "function"
    }
  ],
  "bytecode": "0x608060405234801561001057600080fd5b5061160c806100206000396000f3fe608060405234801561001057600080fd5b506004361061004b5760003560e01c806237145c14610050578063532561351461006c578063aefedbc21461008a578063f0312a37146100a8575b600080fd5b61006a60048036038101906100659190610e22565b6100c4565b005b6100746102ad565b6040516100819190611145565b60405180910390f35b6100926106cd565b60405161009f9190611145565b60405180910390f35b6100c260048036038101906100bd9190611193565b610b58565b005b60008080549050905060006040518060e0016040528083815260200187815260200186151581526020018581526020013373ffffffffffffffffffffffffffffffffffffffff168152602001888152602001841515815250908060018154018082558091505060019003906000526020600020906007020160009091909190915060008201518160000155602082015181600101908161016491906113df565b5060408201518160020160006101000a81548160ff021916908315150217905550606082015181600301908161019a91906113df565b5060808201518160040160006101000a81548173ffffffffffffffffffffffffffffffffffffffff021916908373ffffffffffffffffffffffffffffffffffffffff16021790555060a08201518160050190816101f791906113df565b5060c08201518160060160006101000a81548160ff0219169083151502179055505050336001600083815260200190815260200160002060006101000a81548173ffffffffffffffffffffffffffffffffffffffff021916908373ffffffffffffffffffffffffffffffffffffffff1602179055507f8b2db9b424f26463510ef5b02c16f2465836b52081b51d2112ec76102053bdea338260405161029d9291906114cf565b60405180910390a1505050505050565b60606000808054905067ffffffffffffffff8111156102cf576102ce610cbf565b5b60405190808252806020026020018201604052801561030857816020015b6102f5610c39565b8152602001906001900390816102ed5790505b5090506000805b600080549050811015610613576000151560008281548110610334576103336114f8565b5b906000526020600020906007020160060160009054906101000a900460ff16151503610600576000818154811061036e5761036d6114f8565b5b90600052602060002090600702016040518060e0016040529081600082015481526020016001820180546103a190611202565b80601f01602080910402602001604051908101604052809291908181526020018280546103cd90611202565b801561041a5780601f106103ef5761010080835404028352916020019161041a565b820191906000526020600020905b8154815290600101906020018083116103fd57829003601f168201915b505050505081526020016002820160009054906101000a900460ff1615151515815260200160038201805461044e90611202565b80601f016020809104026020016040519081016040528092919081815260200182805461047a90611202565b80156104c75780601f1061049c576101008083540402835291602001916104c7565b820191906000526020600020905b8154815290600101906020018083116104aa57829003601f168201915b505050505081526020016004820160009054906101000a900473ffffffffffffffffffffffffffffffffffffffff1673ffffffffffffffffffffffffffffffffffffffff1673ffffffffffffffffffffffffffffffffffffffff16815260200160058201805461053690611202565b80601f016020809104026020016040519081016040528092919081815260200182805461056290611202565b80156105af5780601f10610584576101008083540402835291602001916105af565b820191906000526020600020905b81548152906001019060200180831161059257829003601f168201915b505050505081526020016006820160009054906101000a900460ff1615151515815250508383815181106105e6576105e56114f8565b5b602002602001018190525081806105fc90611556565b9250505b808061060b90611556565b91505061030f565b5060008167ffffffffffffffff8111156106305761062f610cbf565b5b60405190808252806020026020018201604052801561066957816020015b610656610c39565b81526020019060019003908161064e5790505b50905060005b828110156106c35783818151811061068a576106896114f8565b5b60200260200101518282815181106106a5576106a46114f8565b5b602002602001018190525080806106bb90611556565b91505061066f565b5080935050505090565b60606000808054905067ffffffffffffffff8111156106ef576106ee610cbf565b5b60405190808252806020026020018201604052801561072857816020015b610715610c39565b81526020019060019003908161070d5790505b5090506000805b600080549050811015610a9e576000151560008281548110610754576107536114f8565b5b906000526020600020906007020160060160009054906101000a900460ff1615151480156107e057503373ffffffffffffffffffffffffffffffffffffffff166001600083815260200190815260200160002060009054906101000a900473ffffffffffffffffffffffffffffffffffffffff1673ffffffffffffffffffffffffffffffffffffffff16145b15610a8b57600081815481106107f9576107f86114f8565b5b90600052602060002090600702016040518060e00160405290816000820154815260200160018201805461082c90611202565b80601f016020809104026020016040519081016040528092919081815260200182805461085890611202565b80156108a55780601f1061087a576101008083540402835291602001916108a5565b820191906000526020600020905b81548152906001019060200180831161088857829003601f168201915b505050505081526020016002820160009054906101000a900460ff161515151581526020016003820180546108d990611202565b80601f016020809104026020016040519081016040528092919081815260200182805461090590611202565b80156109525780601f1061092757610100808354040283529160200191610952565b820191906000526020600020905b81548152906001019060200180831161093557829003601f168201915b505050505081526020016004820160009054906101000a900473ffffffffffffffffffffffffffffffffffffffff1673ffffffffffffffffffffffffffffffffffffffff1673ffffffffffffffffffffffffffffffffffffffff1681526020016005820180546109c190611202565b80601f01602080910402602001604051908101604052809291908181526020018280546109ed90611202565b8015610a3a5780601f10610a0f57610100808354040283529160200191610a3a565b820191906000526020600020905b815481529060010190602001808311610a1d57829003601f168201915b505050505081526020016006820160009054906101000a900460ff161515151581525050838381518110610a7157610a706114f8565b5b60200260200101819052508180610a8790611556565b9250505b8080610a9690611556565b91505061072f565b5060008167ffffffffffffffff811115610abb57610aba610cbf565b5b604051908082528060200260200182016040528015610af457816020015b610ae1610c39565b815260200190600190039081610ad95790505b50905060005b82811015610b4e57838181518110610b1557610b146114f8565b5b6020026020010151828281518110610b3057610b2f6114f8565b5b60200260200101819052508080610b4690611556565b915050610afa565b5080935050505090565b3373ffffffffffffffffffffffffffffffffffffffff166001600084815260200190815260200160002060009054906101000a900473ffffffffffffffffffffffffffffffffffffffff1673ffffffffffffffffffffffffffffffffffffffff1603610c35578060008381548110610bd357610bd26114f8565b5b906000526020600020906007020160060160006101000a81548160ff0219169083151502179055507f2430f837dd2fb40e08c064be9db3d0cf2a7a21f8fe716a2a41787dafc66a7e2a8282604051610c2c9291906115ad565b60405180910390a15b5050565b6040518060e00160405280600081526020016060815260200160001515815260200160608152602001600073ffffffffffffffffffffffffffffffffffffffff168152602001606081526020016000151581525090565b6000604051905090565b600080fd5b600080fd5b600080fd5b600080fd5b6000601f19601f8301169050919050565b7f4e487b7100000000000000000000000000000000000000000000000000000000600052604160045260246000fd5b610cf782610cae565b810181811067ffffffffffffffff82111715610d1657610d15610cbf565b5b80604052505050565b6000610d29610c90565b9050610d358282610cee565b919050565b600067ffffffffffffffff821115610d5557610d54610cbf565b5b610d5e82610cae565b9050602081019050919050565b82818337600083830152505050565b6000610d8d610d8884610d3a565b610d1f565b905082815260208101848484011115610da957610da8610ca9565b5b610db4848285610d6b565b509392505050565b600082601f830112610dd157610dd0610ca4565b5b8135610de1848260208601610d7a565b91505092915050565b60008115159050919050565b610dff81610dea565b8114610e0a57600080fd5b50565b600081359050610e1c81610df6565b92915050565b600080600080600060a08688031215610e3e57610e3d610c9a565b5b600086013567ffffffffffffffff811115610e5c57610e5b610c9f565b5b610e6888828901610dbc565b955050602086013567ffffffffffffffff811115610e8957610e88610c9f565b5b610e9588828901610dbc565b9450506040610ea688828901610e0d565b935050606086013567ffffffffffffffff811115610ec757610ec6610c9f565b5b610ed388828901610dbc565b9250506080610ee488828901610e0d565b9150509295509295909350565b600081519050919050565b600082825260208201905092915050565b6000819050602082019050919050565b6000819050919050565b610f3081610f1d565b82525050565b600081519050919050565b600082825260208201905092915050565b60005b83811015610f70578082015181840152602081019050610f55565b60008484015250505050565b6000610f8782610f36565b610f918185610f41565b9350610fa1818560208601610f52565b610faa81610cae565b840191505092915050565b610fbe81610dea565b82525050565b600073ffffffffffffffffffffffffffffffffffffffff82169050919050565b6000610fef82610fc4565b9050919050565b610fff81610fe4565b82525050565b600060e08301600083015161101d6000860182610f27565b50602083015184820360208601526110358282610f7c565b915050604083015161104a6040860182610fb5565b50606083015184820360608601526110628282610f7c565b91505060808301516110776080860182610ff6565b5060a083015184820360a086015261108f8282610f7c565b91505060c08301516110a460c0860182610fb5565b508091505092915050565b60006110bb8383611005565b905092915050565b6000602082019050919050565b60006110db82610ef1565b6110e58185610efc565b9350836020820285016110f785610f0d565b8060005b85811015611133578484038952815161111485826110af565b945061111f836110c3565b925060208a019950506001810190506110fb565b50829750879550505050505092915050565b6000602082019050818103600083015261115f81846110d0565b905092915050565b61117081610f1d565b811461117b57600080fd5b50565b60008135905061118d81611167565b92915050565b600080604083850312156111aa576111a9610c9a565b5b60006111b88582860161117e565b92505060206111c985828601610e0d565b9150509250929050565b7f4e487b7100000000000000000000000000000000000000000000000000000000600052602260045260246000fd5b6000600282049050600182168061121a57607f821691505b60208210810361122d5761122c6111d3565b5b50919050565b60008190508160005260206000209050919050565b60006020601f8301049050919050565b600082821b905092915050565b6000600883026112957fffffffffffffffffffffffffffffffffffffffffffffffffffffffffffffffff82611258565b61129f8683611258565b95508019841693508086168417925050509392505050565b6000819050919050565b60006112dc6112d76112d284610f1d565b6112b7565b610f1d565b9050919050565b6000819050919050565b6112f6836112c1565b61130a611302826112e3565b848454611265565b825550505050565b600090565b61131f611312565b61132a8184846112ed565b505050565b5b8181101561134e57611343600082611317565b600181019050611330565b5050565b601f8211156113935761136481611233565b61136d84611248565b8101602085101561137c578190505b61139061138885611248565b83018261132f565b50505b505050565b600082821c905092915050565b60006113b660001984600802611398565b1980831691505092915050565b60006113cf83836113a5565b9150826002028217905092915050565b6113e882610f36565b67ffffffffffffffff81111561140157611400610cbf565b5b61140b8254611202565b611416828285611352565b600060209050601f8311600181146114495760008415611437578287015190505b61144185826113c3565b8655506114a9565b601f19841661145786611233565b60005b8281101561147f5784890151825560018201915060208501945060208101905061145a565b8683101561149c5784890151611498601f8916826113a5565b8355505b6001600288020188555050505b505050505050565b6114ba81610fe4565b82525050565b6114c981610f1d565b82525050565b60006040820190506114e460008301856114b1565b6114f160208301846114c0565b9392505050565b7f4e487b7100000000000000000000000000000000000000000000000000000000600052603260045260246000fd5b7f4e487b7100000000000000000000000000000000000000000000000000000000600052601160045260246000fd5b600061156182610f1d565b91507fffffffffffffffffffffffffffffffffffffffffffffffffffffffffffffffff820361159357611592611527565b5b600182019050919050565b6115a781610dea565b82525050565b60006040820190506115c260008301856114c0565b6115cf602083018461159e565b939250505056fea26469706673582212200f2261c71023c28b9e75e45cfd48b5ff06f620f2babdebc53a7560c77d7ee29c64736f6c63430008110033",
  "immutableReferences": {},
  "source": "// SPDX-License-Identifier: UNLICENSED\r\npragma solidity ^0.8.17;\r\n\r\ncontract TwitterContract {\r\n\r\n    event AddTweet(address recipient, uint tweetId);\r\n    event DeleteTweet(uint tweetId, bool isDeleted);\r\n\r\n    struct Tweet {\r\n\r\n        uint id;\r\n        string img;\r\n        bool isVideo;\r\n        string video;\r\n        address userName;\r\n        string tweetText;\r\n        bool isDeleted;\r\n    }\r\n\r\n    Tweet[] private tweets;\r\n\r\n    //mapping tweet id to wallet address of the user\r\n    mapping (uint256 => address) tweetToOwner;\r\n\r\n    //method to be called by our front end when trying to add anew tweet\r\n    function addTweet(string memory tweetText, string memory url, bool isVideo, string memory video, bool isDeleted) external {\r\n        uint tweetId = tweets.length;\r\n        tweets.push(Tweet(tweetId, url, isVideo, video, msg.sender, tweetText, isDeleted));\r\n        tweetToOwner[tweetId] = msg.sender;\r\n        emit AddTweet(msg.sender, tweetId);\r\n    }\r\n\r\n    //method to get all th tweets\r\n    function getAllTweets() external view returns (Tweet[] memory) {\r\n        Tweet[] memory temporary = new Tweet[](tweets.length);\r\n\r\n        uint counter = 0;\r\n        for(uint i = 0; i < tweets.length; i++) {\r\n            if(tweets[i].isDeleted == false) {\r\n                temporary[counter] = tweets[i];\r\n                counter++;\r\n            }\r\n        }\r\n\r\n        Tweet[] memory result = new Tweet[](counter);\r\n        for(uint i = 0; i < counter; i++) {\r\n            result[i] = temporary[i];\r\n        }\r\n        return result;\r\n    }\r\n\r\n    //method to get only my tweet\r\n    function getMyTweets() external view returns (Tweet[] memory) {\r\n        Tweet[] memory temporary = new Tweet[](tweets.length);\r\n\r\n        uint counter = 0;\r\n        for(uint i = 0; i < tweets.length; i++) {\r\n            if(tweets[i].isDeleted == false && tweetToOwner[i] == msg.sender) {\r\n                temporary[counter] = tweets[i];\r\n                counter++;\r\n            }\r\n        }\r\n\r\n        Tweet[] memory result = new Tweet[](counter);\r\n        for(uint i = 0; i < counter; i++) {\r\n            result[i] = temporary[i];\r\n        }\r\n        return result;\r\n    }\r\n\r\n    //method to delete a tweet\r\n    function deleteTweet(uint tweetId, bool isDeleted) external {\r\n        if(tweetToOwner[tweetId] == msg.sender) {\r\n            tweets[tweetId].isDeleted = isDeleted;\r\n            emit DeleteTweet(tweetId, isDeleted);\r\n        }\r\n    }\r\n}",
  "sourcePath": "C:\\Users\\mylik\\OneDrive\\Desktop\\New folder (2)\\voting\\contracts\\TwitterContract.sol",
  "compiler": {
    "name": "solc",
    "version": "0.8.17+commit.8df45f5f.Emscripten.clang"
  },
  "schemaVersion": "3.4.10",
  "updatedAt": "2023-01-04T07:36:20.701Z",
  "networkType": "ethereum",
  "devdoc": {
    "kind": "dev",
    "methods": {},
    "version": 1
  },
  "userdoc": {
    "kind": "user",
    "methods": {},
    "version": 1
  }
}